:100000000C94BC010C94E4010C94E4010C94E40104
:100010000C94E4010C94E60E0C94E4010C94BF0ED5
:100020000C94E4010C94E4010C94E4010C94E401BC
:100030000C94E4010C94E4010C94E4010C94E401AC
:100040000C949B1B0C94E4010C94E4010C94E401CB
:100050000C94E4010C94E4010C94E4010C94E4018C
:100060000C94E4010C94E4011C0B3E0B5D0B730B30
:10007000810B990BA40BB50BC90BDA0BEB0B000C26
:100080000D0C1F0C350C480CEE0CF50CFF0C0E0E75
:1000900008000000BE922449123EABAAAA2ABECD97
:1000A000CCCC4C3E00000080BEABAAAAAA3E000009
:1000B0000000BF000000803F000000000008417801
:1000C000D3BB4387D1133D190E3CC3BD4282AD2B38
:1000D0003E68EC8276BED98FE1A93E4C80EFFFBE30
:1000E00001C4FF7F3F00000000005265736574206B
:1000F00073657474696E67732E2E00212142455218
:100100005F6932633D005600212156616463323DD0
:10011000005600212156617663633D00560021217F
:1001200056332E333D005600212156352E303D00EA
:1001300025003D0021214350555F72780025003D88
:100140000021214350555F72780025002121435042
:10015000555F74783D00312E30316D00205200081B
:10016000040A050A04080000000000000000001056
:100170001010101010101010101414141414141067
:10018000101515151515150C121E12120000001C65
:10019000121C121C0000000000000000000000649F
:1001A000426D20202000506F7765722D6F666620AB
:1001B0003733203A2D29002A2A455449414E4D53C0
:1001C000555257444B474F4856462A4C2A504A42AC
:1001D0005843595A512A2A353453332A2A2A322A63
:1001E0002A2B2A2A2A4A31363D2F2A2A2A482A37F8
:1001F0002A472A382A39302A2A2A2A2A2A2A2A2A1F
:100200002A2A2A3F5F2A2A2A2A222A2A2E2A2A2A08
:100210002A402A2A2A272A2A2D2A2A2A2A2A2A2A28
:100220002A3B212A292A2A2A2A2A2C2A2A2A2A3A15
:100230002A2A2A2A003A20003A20003A2000506157
:1002400072616D204300392E3300506172616D2060
:100250004200392E3200506172616D204100392E0A
:100260003100545820447269766500332E34004DB5
:100270004F5800332E3300564F58204761696E00A7
:10028000332E3200564F5800332E3100435720444E
:1002900065636F64657200322E3100532D6D657495
:1002A000657200312E3130004154543200312E3904
:1002B0000041545400312E38004E5200312E370088
:1002C00041474300312E360054756E6520526174EB
:1002D0006500312E350042616E6400312E340046D7
:1002E000696C74657220425700312E33004D6F6483
:1002F0006500312E3200566F6C756D6500312E3100
:100300000000000000240027002A00000000002553
:100310000028002B00000000002300260029000414
:10032000040404040404040202020202020303039C
:100330000303030102040810204080010204081096
:100340002001020408102000000008000201000043
:1003500003040700000000000000003A20003A20DB
:10036000003A20003A20003A20000120002D0051E0
:1003700043580000C427BD2711241FBECFEFD8E08B
:10038000DEBFCDBF12E0A0E0B1E0EEE6FEE502C0C8
:1003900005900D92A83DB107D9F725E0A8EDB2E090
:1003A00001C01D92A537B207E1F711E0CBEBD1E018
:1003B00004C02197FE010E947B2BCA3BD107C9F7DD
:1003C0000E94E51B0C942A2F0C9400008091E203FC
:1003D00080937C0080917A00806480937A00809181
:1003E000780090917900925029EC34E03093DC034E
:1003F0002093DB034091C2045091C3049C01241B51
:10040000350B37FF02C02F5F3F4F35952795240FDF
:10041000351F3093C3042093C204821B930B209199
:10042000DD03233081F02091DD03273061F0880F58
:10043000991F9093BF048093BE048091DD038F5F6A
:100440008093DD0308952091C0043091C104280FEA
:10045000391F4091BE045091BF04240F351F909363
:10046000C1048093C0048091DD03873009F082C00D
:100470008091BC049091BD04820F931F4091BA04F7
:100480005091BB04840F951F3093BD042093BC048E
:100490002091CC0402C0959587952A95E2F7909318
:1004A000B9048093B804EAE9F4E0828193818193EE
:1004B000919384E0E83BF807C1F78091A8049091FC
:1004C000A90490939904809398048091A604909134
:1004D000A7042091AA043091AB04821B930B2091B6
:1004E0009E0430919F044091B2045091B304241BA8
:1004F000350B220F331F220F331F40919A04509166
:100500009B046091B6047091B704461B570B240FEF
:10051000351F220F331F6091A2047091A3044091F4
:10052000AE045091AF04641B750BE5E1E69FA0019A
:10053000E79F500D1124240F351F6FE0689FA00125
:10054000699F500D1124240F351F37FF02C0215819
:100550003F4F220F232F221F330B97FD01969595B6
:100560008795820F931F909397048093960410921F
:10057000DD030895220F331F3093BB042093BA0488
:100580005CCF0F931F934091EA0320914B0430916D
:100590004C04443024F540914D0450914E04BC016C
:1005A000641B750BAB01EDE1E49FB001E59F700D9D
:1005B0001124E2E3E29FA001E39F500D1124460FB6
:1005C000571F57FF02C0415C5F4F90934E048093CA
:1005D0004D04CA01B6E095958795BA95E1F79093D9
:1005E0004C0480934B044091EA036091490470915C
:1005F0004A04443009F463C004F54230B9F1433091
:1006000009F0A5C0AC01440F551F840F951F280F9A
:10061000391F87E0829FA001839F500D112420E3A2
:10062000269FC001279F900D1124840F951F409194
:100630004704509148041EEE33C0453009F45FC0B2
:10064000463009F084C0220F331F281B390B4FE6B8
:10065000469FC001479F900D1124F901E80FF91F33
:10066000009147041091480482EC5EC0AC01440F35
:10067000551F840F951F280F391F8AE0829FA00104
:10068000839F500D1124CB01A4E0880F991FAA95D8
:10069000E1F7840F951F40914704509148041FEEE5
:1006A00014039001159F300D1124820F931F97FDA5
:1006B0004F9655E0959587955A95E1F748C0281BC8
:1006C000390B85E0829FA001839F500D112429E6FC
:1006D000269FC001279F900D1124840F951F4091E4
:1006E00047045091480416EC14039001159F300DF7
:1006F0001124820F931F97FF25C0CF9623C0281B7C
:10070000390BC901880F991F280F391F4CE6469FE6
:10071000C001479F900D1124F901E80FF91F0091C6
:1007200047041091480483EC282F2003A001219F47
:10073000500D11249F01240F351F37FF02C0215C8B
:100740003F4FC90116E0959587951A95E1F770938B
:1007500048046093470490934A048093490420918D
:10076000EA034091450450914604243009F44EC0F8
:10077000DCF4223069F1233009F07CC0880F991F26
:10078000860F971F880F991F880F991F26E1249FB6
:10079000B001259F700D1124860F971F60914304AF
:1007A0007091440411ED58C0253009F444C026303E
:1007B00009F060C06DE6649F9001659F300D1124C3
:1007C000820F931F609143047091440412EC44C063
:1007D000680F791FB3E0660F771FBA95E1F7EDE078
:1007E000E89F9001E99F300D1124CB01820F931FE8
:1007F00065ED64039001659F300D1124820F931FF6
:1008000060914304709144041CEC26C09C01220FAB
:10081000331F820F931F860F971F21E6249FB0017D
:10082000259F700D1124860F971F609143047091CE
:10083000440417EC11C0880F991F860F971F68E6B4
:10084000649F9001659F300D1124820F931F60916A
:1008500043047091440414EC16039001179F300D6B
:100860001124820F931F97FDCF9626E095958795CB
:100870002A95E1F75093440440934304909346042F
:10088000809345041F910F910895809141049091A8
:1008900042042091C4043091C504820F931F9093A9
:1008A0004204809341042091410430914204832FFB
:1008B000032E000C990B880F892F881F990B832713
:1008C0008093880008950F931F93CF93DF938C013B
:1008D000EB01FC0197FF04C0EE27FF27E81BF90B93
:1008E0009E01D7FF04C0222733272C1B3D0B2E1758
:1008F0003F07F4F44AED429FC001439F900D11243D
:10090000BF010E94262B43E353E0461B570B429F37
:10091000C001439F900D529F900D1124BF010E9472
:10092000262B82EB94E09C01261B370BB90119C0E2
:10093000209701F14AED4E9FC0014F9F900D112469
:10094000B9010E94262B43E353E0461B570B4E9FF1
:10095000C0014F9F900D5E9F900D1124B9010E9420
:10096000262BD7FF09C085E699E09C01261B370B93
:10097000B90102C060E070E017FF05C08827992721
:10098000861B970B01C0CB01DF91CF911F910F9177
:1009900008958F929F92AF92BF92CF92DF92EF9283
:1009A000FF920F931F93CF93DF938091E303809384
:1009B0007C0080917A00806480937A002091780096
:1009C00030917900325086EE91E09093DC03809371
:1009D000DB038091E903882361F010926604109292
:1009E0006504109252041092510410925004109217
:1009F0004F04609151047091520480914F04909182
:100A00005004860F971F9093500480934F04409199
:100A1000650450916604460F571F5093520440934B
:100A2000510440910E01442399F0E5E09595879596
:100A3000EA95E1F78F37910534F481384FEF940749
:100A400024F0805803C08FEF01C080E080938800BD
:100A50008091940490919504820F931F97FD0196C5
:100A60009595879530939504209394044091920432
:100A7000509193049C01241B350B37FF02C02F5F5C
:100A80003F4F35952795240F351F309393042093BE
:100A90009204821B930B2091DD032223E1F020912D
:100AA000DD032430C1F0880F991F90938F04809349
:100AB0008E048091DD038F5F8093DD03DF91CF9102
:100AC0001F910F91FF90EF90DF90CF90BF90AF906C
:100AD0009F908F9008952091900430919104280F59
:100AE000391F40918E0450918F04240F351F90932D
:100AF0009104809390048091DD038111BCC38091A7
:100B00008C0490918D04820F931F40918A04509120
:100B10008B04840F951F30938D0420938C042091B7
:100B2000CC0402C0959587952A95E2F790938904A5
:100B30008093880420917A0430917B043093790467
:100B40002093780420917C0430917D0430937B04C1
:100B500020937A0420917E0430917F0430937D04A9
:100B600020937C04209180043091810430937F0491
:100B700020937E0420918204309183043093810479
:100B80002093800420918404309185043093830461
:100B90002093820420918604309187043093850449
:100BA000209384049093870480938604C0917804F2
:100BB000D09179048091960490919704C80FD91F21
:100BC000809177049FEF980F90937704409173047E
:100BD000509174046091750470917604811111C074
:100BE0004093DE035093DF036093E0037093E103CF
:100BF000109273041092740410927504109276048B
:100C000017C0CE01D7FF04C0882799278C1B9D0BE6
:100C1000092E000CAA0BBB0B840F951FA61FB71F34
:100C20008093730490937404A0937504B093760436
:100C300080912201833009F0DBC08091780490918B
:100C400079042091710430917204821B930B97FDFB
:100C5000019695958795820F931F909372048093C8
:100C600071042091780430917904A901481B590B33
:100C7000509379044093780480919804909199045A
:100C800020916F0430917004821B930B97FD0196A5
:100C900095958795820F931F9093700480936F04AE
:100CA0002091980430919904A901481B590B509345
:100CB000990440939804809178049091790420914C
:100CC000780430917904181619061CF03195219595
:100CD000310980919804909199041816190644F0EE
:100CE000809198049091990491958195910904C0FF
:100CF0008091980490919904821793078CF58091C4
:100D0000780490917904C0917804D09179041816F0
:100D100019061CF0D195C195D10980919804909144
:100D20009904181619067CF0A0919804B0919904C2
:100D3000B7FD1396B595A795B595A795EE27FF270F
:100D4000EA1BFB0B0AC0E0919804F0919904F7FDAF
:100D50003396F595E795F595E795CE0FDF1F34C0EF
:100D60008091980490919904C0919804D09199042D
:100D7000181619061CF0D195C195D10980917804F7
:100D800090917904181619068CF0409178045091CE
:100D9000790457FF02C04D5F5F4F559547955595B4
:100DA000479522273327241B350B0CC0209178044C
:100DB0003091790437FF02C02D5F3F4F359527955D
:100DC00035952795C20FD31F20916D0430916E0485
:100DD000CE01821B930B97FD019695958795820F07
:100DE000931F90936E0480936D04C81BD90B19C098
:100DF000809122018430A9F4609178047091790483
:100E000080919804909199040E94630420916B044E
:100E100030916C04EC01C21BD30B90936C04809353
:100E20006B0480913801882309F440C0609125014A
:100E300070912601611554E0750774F0CB01892F7C
:100E4000990F990B859585959E01289FE001299F13
:100E5000D00D389FD00D11244D2F459545955D2F10
:100E6000550F550B57FF03C051954195510921E08E
:100E700030E0C901841B950B2FEF3FE7261B370B92
:100E80008217930734F4860F971F9093260180935F
:100E9000250180912501909126011816190634F03C
:100EA00081E090E0909326018093250120910E012E
:100EB00080E190E0821B910927FD939502C0D595B2
:100EC000C7958A95E2F78091CD048823D1F02091CF
:100ED0005304309154049091CD04C21BD30B915014
:100EE00061E070E002C0660F771F9A95E2F7CE01CD
:100EF0000E94262BE901C60FD71FD0935404C0933C
:100F0000530480912201813021F0809122018111CE
:100F100008C08091EA03882321F0CE010E94C1021B
:100F2000EC0180912201823009F07AC18091EA03BC
:100F3000882349F0CE01E6E0880F991FEA95E1F792
:100F40000E94C102EC018091CB04882309F468C19E
:100F50004E01D7FF04C0882499248C1A9D0A092CBD
:100F6000000CAA08BB088091610490916204A091D2
:100F70006304B0916404880E991EAA1EBB1E809261
:100F8000610490926204A0926304B0926404809120
:100F900060048F7309F02EC11092600481149104D3
:100FA000A104B10409F43CC1C501B40120E430E05E
:100FB00040E050E00E945C2B80915E0490915F04C1
:100FC000092E000CAA0BBB0B82179307A407B507C9
:100FD00014F4DA01C9017C01BC0197FF02C06F5F04
:100FE0007F4FCB0195958795092E000CAA0BBB0B63
:100FF00082179307A407B5077CF480915C04909155
:101000005D04019690935D0480935C0410925B04F0
:1010100010925A04D12CB8C000915A0410915B046C
:101020000F5F1F4F10935B0400935A0410161106B4
:101030000CF071C020915C0430915D04121613060F
:101040000CF069C0E0915804F0915904CF0164E6B6
:1010500070E00E94262B621773078CF4CF0169E1C0
:1010600070E00E94262B40E6429FC001439F900DF6
:101070001124680F791F7093590460935804E0910C
:101080005804F0915904CF0168E572E00E94262BC4
:1010900062177307F4F4CF016CE271E00E94262B13
:1010A00026173707B4F440E64E9FC0014F9F900DBE
:1010B000112464E670E00E94262B4CE0429FC001A0
:1010C000439F900D1124680F791F7093590460930A
:1010D0005804C0905804D0905904C60168E572E0E5
:1010E0000E94262B6217730794F4E0915704F0E0F6
:1010F000EE0FFF1FC60168EC70E00E94262B81E016
:10110000621773070CF080E0E82BE093570410920D
:101110005D0410925C042091580430915904C90177
:1011200068EC70E00E94262B0617170784F0E09108
:101130005704E23060F0E7FD05C0F0E0E954FE4FEF
:10114000D49001C0D12C81E08093570401C0D12CF0
:10115000C90163E470E00E94262B06171707A4F06C
:10116000C9016CE97FEF0E94262B28EE33E0629FD5
:10117000C001639F900D729F900D112490935B04AA
:1011800080935A0450E2D52EC501B40120E039E124
:1011900040E050E00E945C2B89019A016091550467
:1011A0007091560443E6469FC001479F900D11245D
:1011B000E4E6F0E0BF010E94262B600F711F7093E0
:1011C0005604609355044E9DC0014F9D900D11240F
:1011D000BF010E94262B060F171F10935F04009378
:1011E0005E041092610410926204109263041092E3
:1011F000640401C0D12C809160048F5F80936004EF
:10120000DD2071F0E1E1F1E080E291E021812193C4
:101210008E179F07D9F7D092200181E08093EB03CE
:101220008091E903882361F010926A0410926904A6
:1012300010926804109267041092E903C0E0D0E0B5
:101240008091690490916A04AE01481B590BCA0150
:101250002091670430916804421B530B509366043D
:10126000409365049093680480936704D0936A0464
:10127000C09369041ECC220F331F30938B0420933C
:101280008A0417CCCF93FC017BB1C4818FE090E03E
:101290000C2E01C0880F0A94EAF7809521E030E017
:1012A000D901068002C0AA0FBB1F0A94E2F7462F9D
:1012B00050E094E0559547959A95E1F70C2E01C0C2
:1012C000440F0A94EAF7972F98239A2B492B9BB146
:1012D0006F7001C0660FCA95EAF789238A2B682BC5
:1012E0004BB997B1A901008402C0440F551F0A945D
:1012F000E2F7842F8095892387B99BB1A9010680E5
:1013000002C0440F551F0A94E2F7842F8095892369
:101310008BB96BB947B1C901008402C0880F991F0E
:101320000A94E2F7842B87B997B1A901008402C01F
:10133000440F551F0A94E2F7842F8095892387B9BB
:101340009BB1A901068002C0440F551F0A94E2F721
:10135000842F809589238BB987B1008402C0220F26
:10136000331F0A94E2F7282B27B98FE990E0019701
:10137000F1F781E090E0CF910895089580E090E04A
:101380000895CF93DF9380917A00806480937A00F0
:101390008091400480938A000E94CB16C09178000F
:1013A000D0917900D250E0E2F4E08EE394E0228123
:1013B0003381219331938E179F07C9F720911E0423
:1013C00030911F04CE01821B930B97FD01969595DA
:1013D0008795820F931F90931F0480931E049E0194
:1013E000281B390B30933F0420933E0460912E0458
:1013F00070912F0420912C0430912D0440913004E1
:1014000050913104241B350B8091240490912504C4
:101410004091380450913904841B950B880F991F13
:10142000880F991F4091200450912104E0913C04C1
:10143000F0913D044E1B5F0B840F951F880F991F81
:10144000E0912804F091290440913404509135042E
:10145000E41BF50BA5E1AE9FA001AF9F500D112439
:10146000840F951FEFE0E29FA001E39F500D112430
:10147000840F951F97FF02C081589F4F880F892FB7
:10148000881F990B37FF02C02F5F3F4F3595279577
:10149000820F931F9B0177FF04C022273327261B4F
:1014A000370BAC0197FF04C044275527481B590B45
:1014B000421753072CF4559547955595479504C009
:1014C0003595279535952795240F351F4091E803CD
:1014D0004423B9F040910F0150E04217530740F404
:1014E0004091E803411102C041E009C04FEF07C03D
:1014F0004091E703442329F04091E7034150409392
:10150000E7034091270102C0220F331F4A95E2F7FB
:101510002F3F310509F020F440912701483011F4A4
:101520002FEF30E04091E703442321F0F901E55229
:10153000FD4F4081409340040E94630420911C04AD
:1015400030911D04AC01421B530B9A0190931D0472
:1015500080931C0457FF02C026533D4E8091220108
:10156000813029F088279927821B930B01C0C9017C
:101570000E94EA168091DD038F5F8093DD038091E6
:10158000CA04882351F08091CA04815001C0CC0F55
:101590008A95EAF7C058C0938800DF91CF910895EB
:1015A0004F925F926F927F928F929F92AF92BF9273
:1015B000CF92DF92EF92FF920F931F93CF93DF931F
:1015C000CDB7DEB764970FB6F894DEBF0FBECDBFC0
:1015D000782E162F8EEF870D823078F480E591E01B
:1015E0009093D7048093D60401E0011730F4602F64
:1015F00084E00E94D00A0F5FF8CF111108C011E0FB
:10160000612F872D0E94D00A1F5F1531C9F784E131
:10161000E4E5F1E0DE01119601900D928A95E1F783
:10162000812F90E0FC013197E431F10508F079C396
:10163000EC5CFF4F0C947B2B8091E603882321F018
:10164000823021F08AE003C080E001C088E01F9270
:101650001F921F928F931F9250E1852E912CA12CE7
:10166000B12CCC24CA94DC2C760100E010E026EFEB
:1016700032E04DEF52E06EE071E016C01F921F9213
:101680001F9281E08F938F9344E0842E912CA12CA4
:10169000B12CC12CD12C760100E011E02DEE32E00E
:1016A00042EF52E062E271E0872D0E94621A0F90D1
:1016B0000F900F900F900F9034C31F921F921F92A4
:1016C0001F921F9236E0832E912CA12CB12CC12C9D
:1016D000D12C760109E311E02FED32E049EE52E022
:1016E0006AEE73E0E1CF2AE0C22ED12CE12CF12C7E
:1016F00004E115E026ED32E04BED52E067EE74E0D8
:1017000066C01F921F921F9285E08F931F9299E0EF
:10171000892E912CA12CB12CC12CD12C76018E01BB
:101720000F5F1F4F28EC32E042ED52E062E575E0BA
:10173000BBCFE12CF12C8701E39420EC32E044ECA8
:1017400052E068E371E065C0812C912C5401B8E04F
:10175000CB2ED12CE12CF12C00E010E029EB32E073
:101760004CEB52E06DEC74E010C0812C912C5401D4
:10177000A7E0CA2ED12CE12CF12C08E211E021EBDC
:1017800032E045EB52E065EE73E0872D0E94441194
:10179000C8C2812C912C5401F0E1CF2ED12CE12C28
:1017A000F12C00E010E028EA32E04DEA52E06CEC67
:1017B00074E0EBCFE3E0CE2ED12CE12CF12C0AED3E
:1017C00014E02BE932E043EA52E069ED74E0872D42
:1017D0000E94B90FA6C21F921F921F921F921F92C2
:1017E000812C912C54018394C12CD12C760107E4D7
:1017F00011E02CE832E047E952E06BEC74E054CFA2
:10180000E12CF12C870124E832E048E852E068EE50
:1018100073E0872D0E94861084C254E0852E912C9F
:10182000A12CB12CC12CD12C7601CA9400E010E07F
:1018300027E732E040E852E06FE071E0A6CF1F9268
:101840001F921F921F921F9244E0842E912CA12C74
:10185000B12CC12CD12C760100E010E02FE632E053
:1018600043E752E06AEC74E01FCF24E0822E912C13
:10187000A12CB12C38E0C32ED12CE12CF12C00E0AE
:1018800010E022E632E04BE652E067E271E07DCF05
:1018900082E0781611F17816E8F1E4E07E1609F49A
:1018A00097C07E1640F0F5E07F123BC21092C9044B
:1018B0001092C80436C26091C8048091D6049091F9
:1018C000D7049C012F5F3F4F3093D7042093D60459
:1018D0000E942C286091C904B3C16090D604709016
:1018E000D70483010F5F1F4F1093D7040093D604D2
:1018F000C3010E9424288093C80482E0680E711CF2
:101900007092D7046092D604C8010E942428809364
:10191000C90407C28091C8049091C9042091D804D9
:10192000820F911D27FD9A9597FF05C01092C9045B
:101930001092C8040EC02091D8048091C8049091E0
:10194000C904820F911D27FD9A959093C904809335
:10195000C8041092D8048091C8049091C904809161
:10196000C8049091C90497FFD3C180E090E09093A0
:10197000C9048093C804E1E07E121AC080E80E9486
:1019800041158EE592E00E94601580E20E94601988
:1019900086E592E00E9460158BE491E00E945E155E
:1019A0008BE491E00E945E1580EC0E9441150BC013
:1019B00080EC0E94411586E592E00E94601585E367
:1019C00092E00E9460156091C8047091C9048FC1B3
:1019D0008091D6049091D704029692C12AE432E015
:1019E00042E552E066EC74E006C02EE332E046E4E5
:1019F00052E064EC74E0872D0E942F1292C1F2E055
:101A00007F1609F4D1C07F16B8F084E0781609F487
:101A1000FFC0781608F4E2C0E5E07E1282C180EDD6
:101A200090EFABE6B0E080930A0190930B01A09396
:101A30000C01B0930D0175C180910A0190910B01C9
:101A4000A0910C01B0910D012091D804022E000C40
:101A5000330B820F931F97FF09C010920A01109257
:101A60000B0110920C0110920D011BC08091D80443
:101A700040910A0150910B0160910C0170910D0190
:101A8000082E000C990BAA0BBB0B840F951FA61FE9
:101A9000B71F80930A0190930B01A0930C01B093A0
:101AA0000D011092D80480910A0190910B01A09130
:101AB0000C01B0910D0197FF0AC080910A0190912D
:101AC0000B01A0910C01B0910D0197FD17C0809101
:101AD0000A0190910B01A0910C01B0910D0197FFAB
:101AE0000DC080910A0190910B01A0910C01B09161
:101AF0000D01092E000CAA0BBB0B03C080E090E087
:101B0000DC0180930A0190930B01A0930C01B09328
:101B10000D01F1E07F121AC080E80E94411580E0BB
:101B200090E00E94601580E20E94601980E090E0E1
:101B30000E9460158BE491E00E945E158BE491E0B9
:101B40000E945E1580EC0E9441150BC080EC0E9443
:101B5000411580E090E00E94601588E392E00E94C9
:101B6000601540900A0150900B0160900C0170903C
:101B70000D0177FE0BC08DE20E9460196627772762
:101B8000CB016419750986099709B3C04AE0C301FE
:101B9000B2010E941F198BE491E00E945E158BE454
:101BA00091E00E945E15BDC00AE011E09EE0692E42
:101BB00091E0792E8091D6049091D7049C012F5FFB
:101BC0003F4F3093D7042093D6040E942428F80175
:101BD00081938F016E167F0669F7A3C00AE011E0BA
:101BE0008EE0682E81E0782EF80161918F0180915E
:101BF000D6049091D7049C012F5F3F4F3093D704B8
:101C00002093D6040E942C286016710669F789C0BB
:101C10008091D6049091D704049672C0F2E07F16AA
:101C2000E9F07F1648F184E0781609F464C078166C
:101C300028F0E5E07E1275C08DE267C06091D902A0
:101C40008091D6049091D7049C012F5F3F4F309331
:101C5000D7042093D6040E942C2863C08091D60418
:101C60009091D7049C012F5F3F4F3093D70420936E
:101C7000D6040E94242849C08091D8042091D9021A
:101C8000082E000C990B820F911D97FF8091D804AC
:101C90001092D8041092D902F1E07F121AC080E8A5
:101CA0000E94411580E090E00E94601580E20E9451
:101CB000601980E090E00E9460158BE491E00E9442
:101CC0005E158BE491E00E945E1580EC0E94411548
:101CD0000BC080EC0E94411580E090E00E946015EE
:101CE0008BE392E00E9460156091D90270E080E081
:101CF00090E04AE04ECF8091D6049091D7040196AF
:101D00009093D7048093D6040CC08093D90209C065
:101D10008091C8049091C9048091C8049091C9042D
:101D200026CE64960FB6F894DEBF0FBECDBFDF910E
:101D3000CF911F910F91FF90EF90DF90CF90BF90C8
:101D4000AF909F908F907F906F905F904F9008958D
:101D5000E0E7F0E080818D7F808361E070E080E0EB
:101D600090E00C94CC14EAE7F0E08081877F8083D8
:101D700080818760808380E480937C0008951F9237
:101D80000F920FB60F9211242F933F934F935F93AF
:101D90006F937F938F939F93AF93BF93EF93FF9333
:101DA000E091DB03F091DC030995FF91EF91BF9186
:101DB000AF919F918F917F916F915F914F913F91E3
:101DC0002F910F900FBE0F901F9018951F920F929A
:101DD0000FB60F9211240F931F932F933F934F939E
:101DE0005F936F937F938F939F93AF93BF93CF93A3
:101DF000DF93EF93FF93F8940091D80280E1089F5E
:101E00008001112487E00E94C113EC0186E00E944A
:101E1000C113CC0FDD1F802BC82BC093D802C33158
:101E200039F13CF4C23081F0C03171F0C130B1F50C
:101E30001FC0C33249F01CF4C032D1F02FC0C133EF
:101E400019F0C233A9F02AC080911B0487FD1092BB
:101E50001B0480911B048F5F80931B0480911B04E3
:101E60008430E4F010921B048091D8048F5F14C07A
:101E700080911B04181614F410921B0480911B040B
:101E8000815080931B0480911B048D3F3CF4109281
:101E90001B048091D80481508093D8047894FF91DA
:101EA000EF91DF91CF91BF91AF919F918F917F91F2
:101EB0006F915F914F913F912F911F910F910F90D3
:101EC0000FBE0F901F901895833081F028F4813059
:101ED00099F08230A1F008958730A9F08830B9F0E8
:101EE0008430D1F4809180008F7D03C08091800088
:101EF0008F7780938000089584B58F7702C084B572
:101F00008F7D84BD08958091B0008F7703C080914C
:101F1000B0008F7D8093B0000895809152058F5B53
:101F200080680E9441158EE00C94411590915205F5
:101F3000980F909352059091520519161CF098E055
:101F4000909352059091520599301CF091E0909336
:101F5000520590915205943031F090915205923093
:101F600011F00C948D0F90915205890F80935205BA
:101F7000F8CF8F929F92AF92BF92CF92DF92EF9263
:101F8000FF920F931F93CF93DF93EB014A01590107
:101F9000823021F188F1843009F4A0C028F0853026
:101FA00009F0A7C081E0A4C068818091D604909117
:101FB000D7049C012F5F3F4F3093D7042093D60462
:101FC000DF91CF911F910F91FF90EF90DF90CF9015
:101FD000BF90AF909F908F900C942C288091D60446
:101FE0009091D7049C012F5F3F4F3093D7042093EB
:101FF000D6040E9424287CC048812091D804022E57
:10200000000C330B240F311D47FD3A9537FF02C0FA
:10201000188204C09091D804940F98831092D80429
:102020004881042E000C550B660B770BC416D506A1
:10203000E606F70614F4B701A60177FF03C040E0F7
:1020400050E0BA0148838130C1F480E80E94411514
:10205000C4010E94601580E20E946019C5010E94BF
:1020600060158BE491E00E945E158BE491E00E9484
:102070005E1580EC0E9441150AC080EC0E9441155B
:10208000C5010E94601584E693E00E946015888176
:102090000115110531F4082E000C990B0E946519E9
:1020A00009C0880F990BF801E80FF91F8081918111
:1020B0000E945E158BE491E00E945E158BE491E036
:1020C000DF91CF911F910F91FF90EF90DF90CF9014
:1020D000BF90AF909F908F900C945E158091D60426
:1020E0009091D70401969093D7048093D60401C0B1
:1020F0008883DF91CF911F910F91FF90EF90DF9038
:10210000CF90BF90AF909F908F900895AF92BF9265
:10211000CF92DF92EF92FF920F931F93CF93DF93B3
:10212000EB015A016901823009F170F1843009F440
:102130008FC020F0853009F495C09BC068818091E4
:10214000D6049091D7049C012F5F3F4F3093D70462
:102150002093D604DF91CF911F910F91FF90EF90C4
:10216000DF90CF90BF90AF900C942C288091D60434
:102170009091D7049C012F5F3F4F3093D704209359
:10218000D6040E94242874C098812091D804022E7D
:10219000000C330B290F311D37FF02C018820DC010
:1021A0002091D8049881022E000C330B290F311D89
:1021B00091E0232B09F490E098831092D804988141
:1021C000911101C098819881911101C098819883E3
:1021D0008130C1F480E80E944115C5010E9460155C
:1021E00080E20E946019C6010E9460158BE491E0B4
:1021F0000E945E158BE491E00E945E1580EC0E94C7
:1022000041150AC080EC0E944115C6010E9460156C
:1022100081E693E00E946015E881F0E0EE0FFF1F79
:10222000E95BFE4F808191810E945E158BE491E015
:102230000E945E158BE491E0DF91CF911F910F9189
:10224000FF90EF90DF90CF90BF90AF900C945E1511
:102250008091D6049091D70401969093D7048093EF
:10226000D60407C081E0EF28E02AE12A09F480E0E3
:102270008883DF91CF911F910F91FF90EF90DF90B6
:10228000CF90BF90AF9008954F925F926F927F92E0
:102290008F92AF92BF92CF92DF92EF92FF920F9305
:1022A0001F93CF93DF93CDB7DEB75B012A013901CE
:1022B000823049F1C0F1843009F4B8C030F0853083
:1022C00009F0BDC0FB018082BAC0FB016081809132
:1022D000D6049091D7049C012F5F3F4F3093D704D1
:1022E0002093D604DF91CF911F910F91FF90EF9033
:1022F000DF90CF90BF90AF908F907F906F905F9066
:102300004F900C942C288091D6049091D7049C0176
:102310002F5F3F4F3093D7042093D6040E94242888
:10232000F50180838CC0FB0190812091D804022E9E
:10233000000C330B290F311D37FF02C0108206C07D
:102340002091D804FB019081920F90831092D804C1
:10235000F501408150E060E070E04C155D056E05D0
:102360007F0514F4908102C0F7FC0CC0F501408198
:1023700050E060E070E04C155D056E057F051CF4D3
:10238000C08001C0C12CF501C0828130C1F480E859
:102390000E944115C2010E94601580E20E946019EE
:1023A000C3010E9460158BE491E00E945E158BE4EE
:1023B00091E00E945E1580EC0E9441150AC080ECFD
:1023C0000E944115C3010E9460158EE593E00E94B2
:1023D0006015F5010115110541F4608170E080E0A0
:1023E00090E04AE00E941F190AC08081F801E80FBE
:1023F000F11DE80FF11D808191810E945E158BE433
:1024000091E00E945E158BE491E0DF91CF911F91E6
:102410000F91FF90EF90DF90CF90BF90AF908F9093
:102420007F906F905F904F900C945E158091D604D2
:102430009091D70401969093D7048093D604DF91AE
:10244000CF911F910F91FF90EF90DF90CF90BF90B1
:10245000AF908F907F906F905F904F900895EF9224
:10246000FF920F931F93CF93DF93EB017A018901C2
:10247000823009F467C058F0843009F4A2C008F42F
:102480007EC0853009F0ABC019821882A8C02881AF
:1024900039819091D8049091D80428813981290FED
:1024A000311D97FD3A95398328831092D8042881ED
:1024B00039812F3F3F4711F02881398128813981A7
:1024C0002F3F9FE7390711F028813981398328830D
:1024D0008130C1F480E80E944115C7010E94601557
:1024E00080E20E946019C8010E9460158BE491E0AF
:1024F0000E945E158BE491E00E945E1580EC0E94C4
:1025000041150AC080EC0E944115C8010E94601567
:102510008BE593E00E9460158881998197FF5BC0ED
:10252000888199810E9465198BE491E00E945E1573
:102530008BE491E0DF91CF911F910F91FF90EF908D
:102540000C945E158091D6049091D7049C012F5F66
:102550003F4F3093D7042093D6040E9424288883C9
:102560008091D6049091D7049C012F5F3F4F309308
:10257000D7042093D6040E942428898330C0688120
:102580008091D6049091D7049C012F5F3F4F3093E8
:10259000D7042093D6040E942C2869818091D60408
:1025A0009091D7049C012F5F3F4F3093D704209325
:1025B000D604DF91CF911F910F91FF90EF900C9473
:1025C0002C288091D6049091D70402969093D7043A
:1025D0008093D60404C08BE20E946019A1CFDF91E2
:1025E000CF911F910F91FF90EF9008954F925F92BE
:1025F0006F927F928F929F92AF92BF92CF92DF9213
:10260000EF92FF926B017C019B01AC010E94D02AEA
:10261000882319F080E892E027C046015701E8942A
:10262000B7F82FEF3FEF4FE75FE7C501B4010E9416
:10263000D02A81110DC02FEF3FEF4FE75FE7C501B3
:10264000B4010E94A72818161CF484E892E00CC07C
:102650002FEF3FEF4FE75FE4C701B6010E94062A64
:10266000181684F488E892E0FF90EF90DF90CF9006
:10267000BF90AF909F908F907F906F905F904F90A2
:102680000C944C152FEF3FEF4FE75FECC701B601FD
:102690000E94A72887FDE6CF20E030E0A901C7010E
:1026A000B6010E94A72887FF09C08DE20E94601929
:1026B0005C01F7FAF094F7F8F09402C0A12CB12C69
:1026C0002AE037ED43EA5BE3C701B6010E943B28ED
:1026D0002B013C010E9425296B017C010E94542999
:1026E0009B01AC01C301B2010E943A282B013C01BD
:1026F0004AE0C701B6010E941F197C01EA0CFB1CCD
:102700008EE20E946019E80EF91E20E030E040E2FF
:1027100051E4C301B2010E94632A2B013C010E94D3
:1027200025294B01A12CB12C4AE0C501B4010E941E
:102730001F19E80EF91EC501B4010E9454299B011E
:10274000AC01C301B2010E943A2820E030E040E22F
:1027500051E40E94632A0E94252980E090E04AE02B
:102760000E941F198E0D9F1DFF90EF90DF90CF905C
:10277000BF90AF909F908F907F906F905F904F90A1
:102780000895CF93DF93282F30E0F901E95BFC4FE8
:102790008491F901ED5CFC4FD491F901E15EFC4FAD
:1027A000C491CC2391F081110E94640FEC2FF0E0D2
:1027B000EE0FFF1FEB5EFC4FA591B491EC91ED2362
:1027C00081E090E021F480E002C080E090E0DF91C1
:1027D000CF9108951F93CF93DF93282F30E0F90115
:1027E000E95BFC4F8491F901ED5CFC4FD491F90158
:1027F000E15EFC4FC491CC23C1F0162F81110E94E1
:10280000640FEC2FF0E0EE0FFF1FE55FFC4FA5918A
:10281000B4919FB7F894111104C08C91D095D8232E
:1028200002C0EC91DE2BDC939FBFDF91CF911F9113
:102830000895CF93DF9390E0FC01ED5CFC4F249171
:10284000FC01E15EFC4F8491882361F190E0880FE8
:10285000991FFC01EF5FFC4FC591D491FC01E55F2E
:10286000FC4FA591B491611109C09FB7F89488817C
:10287000209582238883EC912E230BC0623061F473
:102880009FB7F8948881322F309583238883EC9109
:102890002E2B2C939FBF06C08FB7F894E8812E2B68
:1028A00028838FBFDF91CF9108958E3008F08E502E
:1028B0008770806480937C0080917A00806480932C
:1028C0007A0080917A0086FDFCCF8091780020917B
:1028D000790090E0922B0895789484B5826084BD4D
:1028E00084B5816084BD85B5826085BD85B5816014
:1028F00085BDEEE6F0E0808181608083E1E8F0E074
:102900001082808182608083808181608083E0E8A2
:10291000F0E0808181608083E1EBF0E08081846081
:102920008083E0EBF0E0808181608083EAE7F0E083
:1029300080818460808380818260808380818160E7
:1029400080838081806880831092C10008953FB7A2
:10295000F8948091D2049091D304A091D404B091C2
:10296000D50426B5A89B05C02F3F19F00196A11DDF
:10297000B11D3FBFBA2FA92F982F8827820F911D15
:10298000A11DB11DBC01CD0142E0660F771F881F5C
:10299000991F4A95D1F708958F929F92AF92BF9257
:1029A000CF92DF92EF92FF926B017C010E94A714FD
:1029B0004B015C01C114D104E104F104F1F00E9467
:1029C000A714DC01CB0188199909AA09BB09883E23
:1029D0009340A105B10570F321E0C21AD108E108C6
:1029E000F10888EE880E83E0981EA11CB11CC1146A
:1029F000D104E104F10419F7DDCFFF90EF90DF90EF
:102A0000CF90BF90AF909F908F9008952FB7F8947C
:102A10006091CE047091CF048091D0049091D10444
:102A20002FBF0895982F4BB1EAE6F5E064812FE0BF
:102A300030E0062E01C0220F0A94EAF72095822F7B
:102A4000842321E030E0A901068002C0440F551F15
:102A50000A94E2F7482B892F01C0880F6A95EAF79C
:102A6000842B8BB98BB1068002C0220F331F0A94CE
:102A7000E2F7209528232BB98FE890E00197F1F732
:102A80000895CF93C82F82958F700E9412158C2FB6
:102A90008F70CF910C941215009769F0FC01019092
:102AA0000020E9F73197AF01481B590BBC018AE6BA
:102AB00095E00C94931980E090E008950C944C15E7
:102AC0000F931F93CF93DF938C01C0E0D0E0F80108
:102AD000EC0FFD1F6491662341F08AE695E00E94A9
:102AE0004209892B11F02196F2CFCE01DF91CF91CF
:102AF0001F910F91089587FF02C03C9801C03C9A36
:102B00003D9800000000000000003D9A0000000019
:102B10000000000086FF02C03C9801C03C9A3D982E
:102B200000000000000000003D9A000000000000CE
:102B3000000085FF02C03C9801C03C9A3D9800000F
:102B40000000000000003D9A0000000000000000AE
:102B500084FF02C03C9801C03C9A3D9800000000F0
:102B6000000000003D9A000000000000000083FF0C
:102B700002C03C9801C03C9A3D9800000000000053
:102B800000003D9A000000000000000082FF02C02B
:102B90003C9801C03C9A3D980000000000000000F5
:102BA0003D9A000000000000000081FF02C03C9838
:102BB00001C03C9A3D9800000000000000003D9AD2
:102BC000000000000000000080FF02C03C9801C02F
:102BD0003C9A3D9800000000000000003D9A000073
:102BE0000000000000003C98000000000000000011
:102BF0003D9800000000000000003D9A0000000029
:102C0000000000000895CF93DF93D82FC62F0E94B5
:102C10004C1A80EC0E947B158D2F0E947B158C2F07
:102C20000E947B15DF91CF910C94411A3F924F92F5
:102C30005F926F927F928F929F92AF92BF92CF924C
:102C4000DF92EF92FF920F931F93CF93DF93C82FE2
:102C5000362E29013A0147015801DC2DCA01B9017C
:102C60000E9454296B017C01C501B4010E945429C2
:102C70009B01AC01C701B6010E94AC2820E030E006
:102C800040E053E40E94632A0E942529C32CD12CE2
:102C9000E12CF12C27E0CC0CDD1CEE1CFF1C2A954E
:102CA000D1F722E0D21AE108F108C60ED71EE81EBD
:102CB000F91E37E0440C551C661C771C3A95D1F779
:102CC000A50194010E940A2B461A570A680A790A3C
:102CD000692D8C2F0E940316682D81E08C0F0E94B5
:102CE00003166D2F70E080E090E00E9454290E944E
:102CF0001B2A28E132E741E35FE30E94AC280E94EF
:102D00001E296295607FD701C60188279927A37085
:102D1000BB276A2B82E08C0F0E9403166D2D83E087
:102D20008C0F0E9403166C2D84E08C0F0E940316FA
:102D3000882499248FE0A822BB244CE0B694A79461
:102D4000979487944A95D1F7D301C2018827992790
:102D5000AF70BB27682D6A2B85E08C0F0E9403168D
:102D6000652D86E08C0F0E940316642D87E08C0F82
:102D7000DF91CF911F910F91FF90EF90DF90CF9057
:102D8000BF90AF909F908F907F906F905F904F908B
:102D90003F900C940316CF93DF930E944C1A80EC63
:102DA0000E947B1585E20E947B15C3E5D5E08A85EC
:102DB0000E947B158B850E947B158C850E947B155C
:102DC0008D850E947B158E850E947B15DF91CF91AA
:102DD0000C94411ACF92DF92EF92FF920F931F93C0
:102DE000CF93DF93C3E5D5E0ED8149815A816B81B3
:102DF0007C81092E000CAA0BBB0B9A01AB01280F9A
:102E0000391F4A1F5B1FAE2FB0E00E94812B24EEBA
:102E10003FE04CE951E00E945C2B6B017C01A5E096
:102E2000B0E09B01AC010E94812B25E0F594E79472
:102E3000D794C7942A95D1F76C197D098E099F09FB
:102E40002E8140E8249F900111246901330FEE0880
:102E5000FF082FEF3FEF4FE050E00E945C2BFB019B
:102E6000BA01A9014C0D5D1D6E1D7F1D8A019B01DC
:102E7000125021093109AF01BC01BB27A32F922FAA
:102E8000812F8A870B87862F806F8C87452F562F3F
:102E9000672F77274D87EE87DF91CF911F910F9195
:102EA000FF90EF90DF90CF9008953F924F925F9206
:102EB0006F927F928F929F92AF92BF92CF92DF924A
:102EC000EF92FF920F931F93CF93DF93342ED22F65
:102ED000653827ED720727E18207910540F46D3BC5
:102EE0002EEB72078105910520F4C0E803C0C1E014
:102EF00001C0C0E2AC2FB0E09B01AC010E94812B6D
:102F00006B017C01609354057093550580935605C1
:102F10009093570560E074E887ED97E1A70196016B
:102F20000E943A2B209358058091580580FF05C0D8
:102F300080915805815080935805A09158051091B3
:102F40005805B0E0A70196012858334141095109BD
:102F50000E94812B04EE402E0FE0502E0CE9602ED3
:102F600077247394A30192010E943A2B49015A01DC
:102F7000A12FB0E0A701960128573C4E4F4F5F4F5D
:102F80000E94812BA30192010E943A2B8216930684
:102F9000A406B50629F08091580582508093580503
:102FA000A0915805B0E0A70196010E94812B609383
:102FB0006605709367058093680590936905609135
:102FC000660570916705809168059091690524EE0A
:102FD0003FE04CE951E00E943A2B822E5B016C01EC
:102FE0009B01A60160E070E080E090E004E10E94B7
:102FF000F32BAFEF0E940C2CE4EEAE2EFFE0BF2EC1
:10300000ACE9CA2EDD24D394E12CF12C00E010E0D1
:103010000E94962B722EA32EB42ED52E8092590587
:1030200060915905CC24C394EE24EA94FE2C0FE061
:1030300010E0272D3A2D4B2D5D2D8AE10E941616AA
:1030400060915905272D3A2D4B2D5D2D82E20E946E
:10305000161660915805CC2EE12CF12C8701E394D3
:1030600020E030E0A9018AE20E941616609158051E
:1030700020E030E0A90182E30E9416166091580515
:1030800020E030E0A9018AE30E94161680915805DD
:10309000389EC00111240AE510E0B8010E94262BD9
:1030A00085EA0E94031680915805D89FC00111241B
:1030B000B8010E94262B86EA0E9403166FE480E185
:1030C0000E9403166FE481E10E9403166FE682E11D
:1030D0000E9403166CEF83E00E9403168091660540
:1030E00090916705A0916805B091690540916205CE
:1030F000509163056091640570916505841B950B83
:10310000A60BB70B181619061A061B068CF480912D
:10311000660590916705A0916805B0916905409199
:10312000620550916305609164057091650510C05A
:103130008091620590916305A0916405B091650549
:103140004091660550916705609168057091690529
:10315000841B950BA60BB70B81309442A44FB1058D
:1031600034F49091580580915305981749F1809156
:10317000660590916705A0916805B09169058093F7
:10318000620590936305A0936405B09365058091F3
:1031900058058093530560EA81EBDF91CF911F9131
:1031A0000F91FF90EF90DF90CF90BF90AF909F90E6
:1031B0008F907F906F905F904F903F900C9403168C
:1031C000DF91CF911F910F91FF90EF90DF90CF9003
:1031D000BF90AF909F908F907F906F905F904F9037
:1031E0003F90089590917E0021E030E0082E01C0CC
:1031F000220F0A94EAF7292B20937E0010927A007E
:1032000010927B0010927C0090917C008F70892B33
:1032100080937C0090917C00611102C080E401C029
:1032200080EC892B80937C0080917A00836080936E
:103230007A0080917A00806880937A0008958F9256
:103240009F92AF92BF920F931F93CF93DF93CDB70F
:10325000DEB7A1970FB6F894DEBF0FBECDBF19A29F
:10326000423008F44AE08E010F5D1F4F842E912CEE
:10327000A12CB12CA50194010E943A2BE62FB90193
:10328000CA0101501109EA3014F4E05D01C0E95CA3
:10329000D801EC93232B242B252B61F7C8010E9426
:1032A0004C15A1960FB6F894DEBF0FBECDBFDF91CF
:1032B000CF911F910F91BF90AF909F908F900895E5
:1032C000682F8AE695E00C944209CF92DF92EF9244
:1032D000FF92CF93DF936C01990FEE08FF08F7FE82
:1032E00017C08DE20E946019EC0166277727CB0199
:1032F0006C197D098E099F094AE00E941F198C0FE5
:103300009D1FDF91CF91FF90EF90DF90CF900895B8
:103310004AE0C701B601DF91CF91FF90EF90DF90B7
:10332000CF900C941F19CF92DF92EF92FF920F93E0
:103330001F93CF93DF936C017A018B01C0E0D0E043
:10334000CE15DF0581F0D8016D918D01D601ED918B
:10335000FC910190F081E02DC6010995892B11F0B7
:103360002196EECF7E01C701DF91CF911F910F9182
:10337000FF90EF90DF90CF9008950E943B2C80E863
:103380000E9441158FE693E00E9460158091DA0259
:10339000811104C08091E603882379F08DE693E0E3
:1033A0000E946015E091E603F0E0EE0FFF1FEA5186
:1033B000FE4F808191810E945E158AE693E00E9413
:1033C00060158BE491E00C945E15909170009D7FE8
:1033D00090937000F894882339F0909122019230F4
:1033E00031F021EC39E005C029EC34E002C025E4DD
:1033F00034E03093DC032093DB037894882329F0B6
:103400009091E40390937C0003C091E09093E903D2
:103410001092DD03882389F08FEC0E94411583E927
:1034200092E00E945E156BEF83E00E94031660E05D
:1034300088E00E94EA1380E41CC08091E50361E00B
:10344000823009F460E088E00E94EA136CEF83E0C8
:103450000E9403168FEC0E9441158091E8038111B0
:1034600003C085ED92E002C08CEE91E00E945E15F3
:1034700084E08093B300809170008260809370003C
:1034800008953D9800000000000000003C9887B1BE
:103490008F7C87B93C9A08953D9A00000000000097
:1034A00000003C9808953D980000000000000000D6
:1034B00096B196B13D9A000000000000000094FF14
:1034C00080E008952F923F924F925F926F927F9289
:1034D0008F929F92AF92BF92CF92DF92EF92FF9224
:1034E0000F931F93CF93DF931F92CDB7DEB78983DE
:1034F0003B011A0129012E898F899981923059F156
:10350000C0F1943009F4F2C020F0953009F4F8C00D
:10351000FEC0FB0160818091D6049091D7049C018C
:103520002F5F3F4F3093D7042093D6040F90DF9145
:10353000CF911F910F91FF90EF90DF90CF90BF90B0
:10354000AF909F908F907F906F905F904F903F9043
:103550002F900C942C288091D6049091D7049C0134
:103560002F5F3F4F3093D7042093D6040E94242826
:10357000C7C0FB0130818091D804082E000C990B44
:10358000830F911D37FD9A95092E000CAA0BBB0BDA
:103590008C159D05AE05BF053CF4222311F0882D46
:1035A00001C08C2DF30105C08091D804FB019081EE
:1035B000890F80831092D804222389F0F30160815F
:1035C000062E000C770B880B990BA50194012F5F39
:1035D0003F4F4F4F5F4F0E945C2BF3016083F3011D
:1035E0008081082E000C990BAA0BBB0B881599053E
:1035F000AA05BB053CF48081082E000C990BAA0B90
:10360000BB0B02C0D501C4018C159D05AE05BF05DD
:1036100074F0F3018081082E000C990BAA0BBB0BF0
:1036200088159905AA05BB051CF4808001C08C2C67
:10363000F3018082F981F130C1F480E80E944115E4
:10364000C1010E94601580E20E946019C2010E94BF
:1036500060158BE491E00E945E158BE491E00E947E
:103660005E1580EC0E9441150AC080EC0E94411555
:10367000C2010E94601587E693E00E946015011563
:10368000110571F4F7FE04C0F301808187FF3BC090
:10369000F3018081082E000C990B0E9465190BC064
:1036A000F3018081880F990BF801E80FF91F8081E1
:1036B00091810E945E158BE491E00E945E158BE47F
:1036C00091E00F90DF91CF911F910F91FF90EF90BC
:1036D000DF90CF90BF90AF909F908F907F906F9032
:1036E0005F904F903F902F900C945E158091D60480
:1036F0009091D70401969093D7048093D60407C085
:10370000F301808304C08BE20E946019C1CF0F9047
:10371000DF91CF911F910F91FF90EF90DF90CF90AD
:10372000BF90AF909F908F907F906F905F904F90E1
:103730003F902F9008951F920F920FB60F92112471
:103740002F933F938F939F93AF93BF938091CE041A
:103750009091CF04A091D004B091D1043091740520
:1037600023E0230F2D3720F40196A11DB11D05C0C4
:1037700026E8230F0296A11DB11D209374058093A6
:10378000CE049093CF04A093D004B093D104809141
:10379000D2049091D304A091D404B091D5040196A1
:1037A000A11DB11D8093D2049093D304A093D4049F
:1037B000B093D504BF91AF919F918F913F912F917D
:1037C0000F900FBE0F901F901895CF93DF93CDB73A
:1037D000DEB7AC970FB6F894DEBF0FBECDBF0E9428
:1037E0006C140E946C141092DD0381EC99E09093AC
:1037F000DC038093DB030E94A7146B017C010E9411
:10380000BF0E0E94A7149B01AC012C193D094E0963
:103810005F09AAECB2E10E94812B0E94542920E0AA
:1038200030E048EC52E40E94632A20E034E244E7AE
:1038300059E40E94AC286B017C0189EC94E09093E0
:10384000DC038093DB0388E08093DD038E010F5F50
:103850001F4F1E0121E2220E311C812C912C54019C
:103860000E94A7142B013C010E94BF0E0E94A714C6
:103870009B01AC012419350946095709A4E2B4EFAC
:103880000E94812B0E94542920E030E048EC52E451
:103890000E94632A20E034E244E759E40E94AC2805
:1038A0009B01AC01D8016D937D938D939D938D0108
:1038B000C501B4010E943B284B015C0102151305B0
:1038C00079F620E030E040E05EE30E94632A69A7D9
:1038D0007AA78BA79CA780E480937C0098E288E17C
:1038E0000FB6F894A895809360000FBE9093600087
:1038F0001092680010926B0010926C0010926D0094
:1039000062E086E00E94191462E087E00E941914C8
:1039100080916D00806480936D0080916D0080685F
:1039200080936D008091680084608093680080912E
:10393000680084608093680087E00E94C1138C0156
:1039400086E00E94C113000F111F802B8093D802C4
:10395000789460E08BE00E94EA1361E088E00E94C6
:10396000EA1360E08AE00E94EA1360E089E00E94C6
:10397000EA1361E089E00E94191461E08BE00E9483
:10398000191461E088E00E94191461E08AE00E9445
:10399000191460E081E10E94191462E08DE00E9438
:1039A000191460E08CE00E94191460E08EE00E941F
:1039B000EA1360E08FE00E94EA1360E08EE00E946C
:1039C000191460E08FE00E9419143AB16FE070E0C2
:1039D00000906E0502C0660F771F0A94E2F781E03F
:1039E00090E0AC010090700502C0440F551F0A948E
:1039F000E2F7262F242B232B2AB928B10090720539
:103A000002C0880F991F0A94E2F7982F909592238D
:103A100098B997B1892B87B983E30E94411582E356
:103A20000E9441158EE00E94411581E00E944115DF
:103A300063E070E080E090E00E94CC14EFE56E2E31
:103A4000E1E07E2E552453944E01B9E28B0E911C79
:103A500048E050E0B301C1010E941B28852D87700A
:103A6000E8E08E9FC001112480640E94411581010D
:103A7000D8016D918D018AE695E00E9442090815F2
:103A80001905B1F7B8E06B0E711C5394E9E05E12B2
:103A9000DFCF6BEDA62E62E0B62E00E010E0B8019D
:103AA00080E090E00E94542920E030E0A9010E94CB
:103AB0003B280E942529D5016D935D010F5F1F4FA3
:103AC0000115B1E01B0759F76FEF83E00E94031661
:103AD00061E088E00E94EA1364E670E080E090E034
:103AE0000E94CC1460E089E00E94EA138FE00E94FB
:103AF00055145C0161E089E00E94EA138FE00E94A6
:103B000055148C0160E089E00E94EA13B8016A193B
:103B10007B09072E000C880B990B0E9456292B015C
:103B20003C012AE037ED43EA51E40E94A728881FB0
:103B30008827881F8093E60360E971E080E090E0C9
:103B40000E94CC14A8958EE00E9455145C0161E09F
:103B50008FE00E94191461E08FE00E94EA1365E093
:103B600070E080E090E00E94CC1460E08FE00E9462
:103B7000EA138EE00E9455148C0160E08FE00E94F1
:103B8000191460E08FE00E94EA132AE037ED43EA5F
:103B900051E4C301B2010E94A72887FF08C00A1997
:103BA0001B09083011051CF482E08093E60380E1D4
:103BB0000E94551421E0823791400CF420E02093BC
:103BC000DA020E94BF1987E80E9441158CE591E056
:103BD0000E94601586E591E00E9460158BE491E0FB
:103BE0000E945E1520E030E048EC52E4C701B601C7
:103BF0000E94A7281816D4F480EC0E9441158CE48A
:103C000091E00E946015C701B6010E94F6128AE495
:103C100091E00E9460158BE491E00E945E156CEDCE
:103C200075E080E090E00E94CC14A89520E030E0A0
:103C300048EC52E469A57AA58BA59CA50E94A7280B
:103C40001816ECF16FEF83E00E94031660E08AE043
:103C50000E94EA1360E088E00E94EA1364E670E0E4
:103C600080E090E00E94CC148FE00E945514BC01CB
:103C7000990F880B990B0E9456299B01AC010E9459
:103C80003B2820E030E040EA50E40E94632A20E034
:103C900030E040E85AE30E94632A6B017C0161E056
:103CA00088E00E94EA132AE939E949E950E4C701AA
:103CB000B6010E94062A18160CF468C071C080EC88
:103CC0000E94411581E491E00E9460158FE391E02C
:103CD0000E94601569A57AA58BA59CA50E94F61285
:103CE0008DE391E00E9460158BE491E00E945E15E7
:103CF0006CED75E080E090E00E94CC14A8958E01F8
:103D00000B5F1F4FC12CD12C7601C394D8018D902D
:103D10009D90AD90BD908D0120E030E048EC52E4E4
:103D2000C501B4010E94A72818161CF580EC0E945A
:103D3000411584E391E00E9460154AE0C701B60195
:103D40000E941F1982E391E00E946015C501B40131
:103D50000E94F61280E391E00E9460158BE491E0EE
:103D60000E945E156CED75E080E090E00E94CC143E
:103D7000A895BFEFCB1ADB0AEB0AFB0AE8E0CE16E8
:103D8000D104E104F10409F0C1CF5CCF26E636E6A8
:103D900046EA50E4C701B6010E94A72887FD1AC071
:103DA00080EC0E94411588E291E00E946015C701F5
:103DB000B6010E94F61286E291E00E9460158BE443
:103DC00091E00E945E156CED75E080E090E00E944D
:103DD000CC14A89583E10E945514BC01990F880B5F
:103DE000990B0E94562920E030E040EA50E40E94FE
:103DF000632A20E030E040E85AE30E94632A6B0126
:103E00007C012DEC3CEC4CE450E40E94062A181690
:103E100054F423E333E343E750E4C701B6010E94BF
:103E2000A72887FD1AC080EC0E9441158EE191E021
:103E30000E946015C701B6010E94F6128CE191E064
:103E40000E9460158BE491E00E945E156CED75E0B8
:103E500080E090E00E94CC14A89586E00E94551462
:103E600080917C00886080937C0061E070E080E05D
:103E700090E00E94CC1480917A00806480937A0054
:103E800080917A0086FDFCCF609178007091790076
:103E900080E090E00E9454299B01AC016AE979EA34
:103EA0008CE894E40E94AC286B017C0123E333E3AB
:103EB00043E950E40E94062A181654F423E333E33E
:103EC00043EA50E4C701B6010E94A72887FD1AC043
:103ED00080EC0E94411583E191E00E946015C701CA
:103EE000B6010E94F61281E191E00E9460158BE418
:103EF00091E00E945E156CED75E080E090E00E941C
:103F0000CC14A89580E10E945514BC01990F880B30
:103F1000990B0E94562920E030E040EA50E40E94CC
:103F2000632A20E030E040E85AE30E94632A6B01F4
:103F30007C018091DA02882371F126E636E646EEAE
:103F40005FE3C701B6010E94062A181654F42DEC4F
:103F50003CEC4CE450E4C701B6010E94A72887FD61
:103F60001AC080EC0E94411588E091E00E94601523
:103F7000C701B6010E94F61286E091E00E9460152A
:103F80008BE491E00E945E156CED75E080E090E0BE
:103F90000E94CC14A89560910A0170910B01809148
:103FA0000C0190910D012AE540E00E945517A8955B
:103FB0000E94A71408EE13E00E94CB1601501109CD
:103FC000D9F70E94A71460910A0170910B018091AA
:103FD0000C0190910D012AE540E00E945517A8952B
:103FE000E12CF12CC12CD12CC6010E94EA160E94B2
:103FF000CB1643E0A42EB12C0E944C1A80EC0E94F8
:104000007B1582E28A0D0E947B150E94411A0E9454
:104010004C1A81EC0E947B1580E80E94531A182FDD
:1040200080E40E94531A182B80E20E94531A182B26
:1040300080E10E94531A182B88E00E94531A182B13
:1040400084E00E94531A182B82E00E94531A182B06
:1040500081E00E94531A182B3C98000000000000D9
:1040600000003D9800000000000000003C983D9AD0
:1040700000000000000000000E94411AF501ED5A06
:10408000FA4F8781811719F0FFEFEF1AFF0A2FEF20
:10409000A21AB20A38E0A316B10409F0ADCF8FEF2F
:1040A000C81AD80A98EEC91693E0D90609F09CCF31
:1040B000E114F104C1F080EC0E9441158BEF90E017
:1040C0000E946015B70180E090E04AE00E941F194D
:1040D0008BE491E00E945E156CED75E080E090E06D
:1040E0000E94CC14A89560E082E00E94D00A8091E2
:1040F000D9028D32B1F060E085E00E94D00A60E024
:1041000083E00E94D00A80EC0E9441158AEE90E084
:104110000E94601564EF71E080E090E00E94CC1492
:10412000A895109262051092630510926405109292
:10413000650581E0809310018091E7048093E60497
:104140000E94BF198091E603811102C010920E01F6
:104150000E94A80E1092880010928A000E94B30E4E
:1041600081E08093E9031092DD0389EC94E0909361
:10417000DC038093DB0361E082E00E94F21880910F
:104180007C008093E4038091E6038230B9F480914F
:10419000E50361E0813009F460E080E00E94F218FC
:1041A00080917C008093E2038091E50361E081309F
:1041B00009F460E081E00E94F21808C060E080E04D
:1041C0000E94F21880917C008093E20380917C0031
:1041D0008093E30310928000109281008091800010
:1041E000826A809380008091810089618093810040
:1041F000109287008FEF80938600109289001092B2
:10420000880010928B0010928A008091B6008F7DFA
:104210008093B6001092B0001092B1001092B200DC
:104220008091B00082608093B0008091B100846082
:104230008093B1008091700082608093700084E070
:104240008093B3008E010F5F1F4F38EF232E31E0B4
:10425000332E6AE070E080E090E00E94CC14809100
:104260001704811138C17090D904772009F42DC149
:104270008091DE039091DF03A091E003B091E10310
:10428000692F7A2F8B2F99270E9454292091E603BA
:10429000223059F42DEC3CEC4CE85FE30E94632A99
:1042A00020E030E44CE95BE40AC020E030E040EA82
:1042B00050E40E94632A25E239E446ED5BE40E9463
:1042C000AC289B01AC010E94632A20E030E048E466
:1042D00052E40E94AC280E940B2A20E030E040E229
:1042E00051E40E94632A20E030E040EF51E40E9454
:1042F0003B2823E333E343EA50E40E943A286B016E
:104300007C018090E2049090E304A090E404B090DB
:10431000E5049401A5010E94A72887FD02C046017B
:104320005701C401D5018093E2049093E304A09364
:10433000E404B093E5048091EC038F5F8093EC0379
:10434000877009F071C0A1E07A1214C089E80E9458
:1043500041156091E2047091E3048091E40490912E
:10436000E5040E941E29CB010E9465198FE991E0A6
:104370000E9460158091D904823009F049C0809074
:10438000E2049090E304A090E404B090E50420E0FF
:1043900030E04CE752ECC501B4010E94A72887FF2A
:1043A00012C020E030E04EEF52E4C501B4010E949B
:1043B0003B2820E030E040EC50E40E94AC280E9412
:1043C0002529B62E15C020E030E04CE752E4C501A7
:1043D000B4010E943B2820E030E040E251E40E941A
:1043E0003B280E942529862F6AE00E941A2BB92EAD
:1043F0008EE80E944115B9E0BB1518F083E50E94D4
:1044000060196B2D70E080E090E04AE00E941F1977
:1044100080E090E0ACE0B3EC8093E2049093E3049E
:10442000A093E404B093E5048091D904833009F0AB
:104430004CC020E030E04CE752ECB601C7010E94CE
:10444000A72887FF12C020E030E04EEF52E4B6010B
:10445000C7010E943B2820E030E040EC50E40E947D
:10446000AC280E941E29F62E15C020E030E04CE753
:1044700052E4B601C7010E943B2820E030E040E250
:1044800051E40E943B280E942529862F6AE00E9461
:104490001A2BF92E8CE80E944115FE01319634EF5B
:1044A0003F0DCF011F1434F4A4E0AF152CF021E030
:1044B0002F0D03C022E001C025E02193BDEFFB0ECC
:1044C000F312F0CF1D820E945E158091220182308E
:1044D00011F00E948D0F80912201823021F4809191
:1044E000EB03811192C48DE00E94C113892B69F402
:1044F00081E00E94E5198DE00E94C113892B11F41F
:10450000A895F9CF80E00E94E51981E10E94C113CE
:10451000892B09F499C28091160482FD84C0F89415
:10452000C0907A00D0907C0080917A00877F809341
:104530007A0080917A00876080937A0080E480938B
:104540007C0061E070E080E090E00E94CC1481E1AA
:104550000E9455147C01C0927A00D0927C0078941D
:1045600081E0809316040E9406154B015C0181E1F5
:104570000E94C113892B99F00E940615DC01CB0122
:1045800088199909AA09BB098D329140A105B10585
:1045900020F084E08093160402C0A895E8CF6AE07A
:1045A00070E080E090E00E94CC148091160484308A
:1045B000B1F00E940615DC01CB0188199909AA09FE
:1045C000BB09843F9140A105B10548F481E10E94F7
:1045D000C113892B09F423C482E08093160481E17E
:1045E0000E94C113892B69F08091D804882309F4B3
:1045F00018C480911604843009F013C48CE08093B1
:1046000016042EE5E21623E0F20638F03FEFE3163B
:1046100033E0F30620F080E303C080E101C080E2D4
:10462000909116040BC080911604982F907F809172
:10463000D804811102C084E001C08CE0892B8093F2
:10464000160480911604823209F4A7C068F48431FC
:1046500009F4CCC118F4813171F1F8C18C3139F110
:10466000813209F44AC0F2C1823309F4C1C138F47D
:10467000843209F4BFC0813309F4B2C1E7C1843385
:1046800009F4CAC18C3309F0E1C127EFF22ECDC184
:104690008091170480911704823009F0A7C181E04E
:1046A000809310016091150483E00E94D00A81E09C
:1046B00080931704CBC180911704811107C08091AA
:1046C0001504811103C081E08093150480911704C3
:1046D000813011F482E001C081E0909117049230A2
:1046E00039F70E94BF1981E0809310016091150491
:1046F00083E00E94D00A80E0DBCF80911704811113
:1047000031C081E08093D80462E080E00E94D00A4A
:1047100080912201823011F085E001C087E0809312
:10472000520580912201833014F010922201809171
:104730002201823021F484E08093EA0302C01092C7
:10474000EA0362E083E00E94D00A63E083E00E9413
:10475000D00A1092620510926305109264051092BF
:1047600065056EC1F090170481E0F81206C0109242
:1047700017040E94BF19F092100180911704823033
:1047800009F064C181E08093170480931001609167
:10479000150483E00E94D00A59C18091EA038F5F1B
:1047A0008093EA0381E08093E903809122018230C3
:1047B00029F48091EA0387300CF035C380912201FF
:1047C000823029F08091EA0384300CF030C31092DB
:1047D000D80463E080E00E94D00A63E083E00E9496
:1047E000D00AA8956CED75E080E090E00E94CC14B2
:1047F000A89526C18FEC0E9441158CEE91E00E9495
:104800005E15B5E1FB2E8FE0E82EDD24DA9481E120
:104810000E94C113892B09F0DBC0F89460E088E0A6
:104820000E94EA138091E40380937C0080917A00D7
:10483000806480937A0080917A0084FFFCCF61E0ED
:1048400088E00E94EA13809178009091790090931B
:1048500014048093130478948091130490911404A9
:104860009250E3EFF3E0DF0112962D913C91139704
:104870002D933D9324E0A131B207B1F74091F103AC
:104880005091F2039C01241B350B37FF02C02F5FB0
:104890003F4F35952795240F351F3093F203209312
:1048A000F103821B930B9093120480931104809167
:1048B000FF03909100042091030430910404821BB3
:1048C000930B209101043091020437FF03C031950E
:1048D000219531094091F7035091F80360910B0441
:1048E00070910C04461B570B440F551F440F551F66
:1048F0006091F3037091F403A0910F04B091100440
:104900006A1B7B0B460F571F440F551FA091FB03DB
:10491000B091FC036091070470910804A61BB70BCB
:10492000FA9EB001FB9E700D1124640F751FE89E66
:10493000A001E99E500D1124460F571F57FF02C0DA
:1049400041585F4F440F452F441F550B97FD01966B
:1049500095958795480F591F57FF03C0519541956D
:104960005109421753072CF455954795559547958E
:1049700004C03595279535952795240F351F8091CF
:104980000F0190E08217930708F51192119234E01D
:10499000E331F307D1F781E00E94E51981E08093CC
:1049A000E803D092E70361E070E080E090E00E94CD
:1049B000CC148091E703882309F43CC281E10E9472
:1049C000C113892B09F036C2A895F3CFA8951FCF44
:1049D0008FEC0E94411585ED92E00E945E1536C075
:1049E00080911704811154CE81E017C082E060CE1F
:1049F00064E670E080E090E00E94CC148091E704CF
:104A00008F5F8B301CF48093E70402C01092E704A0
:104A100085E08093520514C08FEF0E94960F16C058
:104A2000A8958091E603811106C081E10E94C1131F
:104A3000892BB1F705C08091D8048823B1F306C251
:104A400081E08093100102C0109216048091170437
:104A50008130E9F48091D80490911504890F8093F6
:104A600015041092D80480911504823124F48091A9
:104A7000150418163CF48091150482312CF48091B1
:104A8000150403C081E001C082E180931504809188
:104A90001704882309F47DC080911504882331F020
:104AA0006091150481E00E94D00A07C0109217049B
:104AB0000E94BF1981E08093100180911704823019
:104AC00009F067C080EC0E9441158EE00E944115FC
:104AD0006AE070E080E090E00E94CC1480911504C0
:104AE0008230F1F481E080931001109262051092FF
:104AF0006305109264051092650580912201823051
:104B000011F085E001C087E0809352058091220179
:104B1000823021F484E08093EA0302C01092EA0319
:104B2000809115048830A9F58091E6038230C1F4A4
:104B30006091E5036170FF24F3946F2580E00E948B
:104B4000F21880917C008093E2036091E50361702C
:104B50006F2581E00E94F21880917C008093E3032E
:104B60006091E5036695617081E0682788E00E94A6
:104B7000EA136091E50362FB662760F98EE00E940C
:104B800019146091E50362FB662760F98FE00E94CB
:104B9000191480911704811130C08091D8048823A2
:104BA00061F1A091D804E0915205C0900A01D09023
:104BB0000B01E0900C01F0900D0124E0E202F00105
:104BC0001124E65DFA4F20813181428153810A2E02
:104BD000000CBB0B0E948C2BC60ED71EE81EF91EC4
:104BE000C0920A01D0920B01E0920C01F0920D01EB
:104BF00081E0809310011092D804809110018823E5
:104C000009F4E5C0109210018091E7049091E60448
:104C10009817A1F034E08302F0011124E752FB4F12
:104C2000478550896189728940930A0150930B012D
:104C300060930C0170930D018093E6040E940615A9
:104C4000DC01CB0188519C4FAF4FBF4F8093ED03E8
:104C50009093EE03A093EF03B093F00380911704B9
:104C600081119AC080EC0E94411586E00E94601973
:104C7000C0900A01D0900B01E0900C01F0900D0162
:104C800060910A0170910B0180910C0190910D01CE
:104C900020E432E44FE050E00E945C2B2B013C0109
:104CA000C701B60120E432E44FE050E00E945C2BE3
:104CB0005F934F933F932F938EEE91E09F938F934B
:104CC0001F930F930E94402CC8010E945E150FB6DF
:104CD000F894DEBF0FBECDBF82E0A82EB12C90E4C9
:104CE000C92E92E4D92E9FE0E92EF12CC701B6011E
:104CF00028EE33E040E050E00E943A2B69017A014F
:104D0000C301B2010E943A2B2B013C0191E0C9166C
:104D1000D104E104F10489F4B901CA012AE030E0C8
:104D200040E050E00E943A2B5F934F933F932F93C4
:104D3000A2EFB1E0BF93AF9306C05F934F933F9351
:104D40002F933F922F921F930F930E94402C0FB6E8
:104D5000F894DEBF0FBECDBFC8010E945E1591E082
:104D6000A91AB10819F68FEF91E00E945E15E09143
:104D70002201EE0FFF0BE050FF4F808191810E94D6
:104D80005E158EEF91E00E945E158FEC0E9441153A
:104D900085ED92E00E945E158091220181110BC089
:104DA00060910A0170910B0180910C0190910D01AD
:104DB00020E04AE50AC060910A0170910B018091E0
:104DC0000C0190910D012AE540E00E945517C0901A
:104DD000ED03D090EE03E090EF03F090F003C114E8
:104DE000D104E104F10441F00E940615C616D7066D
:104DF000E806F90608F4B4C0A89580E090E0892B95
:104E000009F427CA0E94000024CA1092EB0380EC28
:104E10000E94411581E191E00E945E1564CBA89546
:104E2000C4CBA895DCCB84E08093EA03C7CC109276
:104E3000EA03CDCC80E00E94E51961E070E080E0FB
:104E400090E00E94CC141092E803E1CC61E080E095
:104E50000E94D00A61E083E00E94D00A80910E0196
:104E600087FFE3CD80EC0E94411586EA91E00E9425
:104E700060158BE491E00E945E15F4BE0FB6F894C5
:104E8000A895809160008861809360001092600016
:104E90000FBE0E94A80E1092880010928A000E94F5
:104EA000B30E60EC80E10E94031660EC81E10E9489
:104EB000031660EC82E10E94031660EC83E10E941D
:104EC000031660EC84E10E94031660EC85E10E9409
:104ED000031660EC86E10E94031660EC87E10E94F5
:104EE00003166FEF83E00E9403166CED75E080E01F
:104EF00090E00E94CC141092680010926B00109207
:104F00006C0010926D0010926E0010926F00109263
:104F100070001092600080916C00886080936C003B
:104F2000809168008260809368008FEF80936400B6
:104F300088E00E94411583B7817F846083BF83B777
:104F4000816083BF85B7806685BF8F7D85BF78947C
:104F5000889583B78E7F83BFE0E0F0E0099565CD4B
:104F600063E183E00E94D00A1092ED031092EE03F9
:104F70001092EF031092F0033FCF88B18F7C88B975
:104F800087B18F7C87B90895CF93DF93EAE6F5E088
:104F9000138212828EED91E09183808315821482B8
:104FA00084E090E0978386839187808788B18F7CA7
:104FB00088B93D9800000000000000003C983C9A31
:104FC0000E946C14109262051092630510926405A1
:104FD00010926505C9EDD4E081E0888388E0E8E6B9
:104FE000F1E0AAEDB4E001900D928A95E1F782E03C
:104FF0008D878E878CE2E0E7F1E0A8EEB4E00190C7
:105000000D928A95E1F786E1ECE9F1E0A4E1B5E0E3
:1050100001900D928A95E1F788E2E2EBF1E0AAE2D5
:10502000B5E001900D928A95E1F785E080935205F5
:10503000DF91CF910895FB01DC0102C005900D9234
:1050400041505040D8F70895F999FECF92BD81BDE7
:10505000F89A992780B50895262FF999FECF1FBA9F
:1050600092BD81BD20BD0FB6F894FA9AF99A0FBE91
:10507000019608955058BB27AA270E9452280C94E5
:10508000CC290E94BE2938F00E94C52920F039F4AD
:105090009F3F19F426F40C94BB290EF4E095E7FB2E
:1050A0000C94B529E92F0E94DD2958F3BA1762073D
:1050B00073078407950720F079F4A6F50C94FF296F
:1050C0000EF4E0950B2EBA2FA02D0B01B901900123
:1050D0000C01CA01A0011124FF27591B99F0593F67
:1050E00050F4503E68F11A16F040A22F232F342FAF
:1050F0004427585FF3CF469537952795A795F040FD
:105100005395C9F77EF41F16BA0B620B730B840B11
:10511000BAF09150A1F0FF0FBB1F661F771F881FC9
:10512000C2F70EC0BA0F621F731F841F48F4879521
:1051300077956795B795F7959E3F08F0B0CF939513
:10514000880F08F09927EE0F9795879508950E948C
:10515000912908F481E008950E94C0280C94CC297C
:105160000E94C52958F00E94BE2940F029F45F3FF3
:1051700029F00C94B52951110C94002A0C94BB29E8
:105180000E94DD2968F39923B1F3552391F3951B10
:10519000550BBB27AA2762177307840738F09F5F58
:1051A0005F4F220F331F441FAA1FA9F335D00E2EC5
:1051B0003AF0E0E832D091505040E695001CCAF732
:1051C0002BD0FE2F29D0660F771F881FBB1F2617F5
:1051D00037074807AB07B0E809F0BB0B802DBF01CC
:1051E000FF2793585F4F3AF09E3F510578F00C949B
:1051F000B5290C94002A5F3FE4F3983ED4F38695DA
:1052000077956795B795F7959F5FC9F7880F911DBB
:105210009695879597F90895E1E0660F771F881FA7
:10522000BB1F621773078407BA0720F0621B730B5A
:10523000840BBA0BEE1F88F7E09508950E9425298C
:105240006894B1110C94002A08950E94E52988F011
:105250009F5798F0B92F9927B751B0F0E1F0660F3A
:10526000771F881F991F1AF0BA95C9F714C0B1307B
:1052700091F00E94FF29B1E008950C94FF29672F57
:10528000782F8827B85F39F0B93FCCF386957795AA
:105290006795B395D9F73EF4909580957095619593
:1052A0007F4F8F4F9F4F0895E89409C097FB3EF4BE
:1052B00090958095709561957F4F8F4F9F4F992363
:1052C000A9F0F92F96E9BB279395F69587957795E1
:1052D0006795B795F111F8CFFAF4BB0F11F460FFA1
:1052E0001BC06F5F7F4F8F4F9F4F16C0882311F0F9
:1052F00096E911C0772321F09EE8872F762F05C00D
:10530000662371F096E8862F70E060E02AF09A95A7
:10531000660F771F881FDAF7880F9695879597F99C
:105320000895990F0008550FAA0BE0E8FEEF161636
:105330001706E807F907C0F012161306E407F50789
:1053400098F0621B730B840B950B39F40A2661F0FD
:10535000232B242B252B21F408950A2609F4A140A0
:10536000A6958FEF811D811D089597F99F6780E8AD
:1053700070E060E008959FEF80EC089500240A94A7
:105380001616170618060906089500240A94121620
:105390001306140605060895092E0394000C11F453
:1053A000882352F0BB0F40F4BF2B11F460FF04C000
:1053B0006F5F7F4F8F4F9F4F089557FD9058440F59
:1053C000551F59F05F3F71F04795880F97FB991F64
:1053D00061F09F3F79F08795089512161306140621
:1053E000551FF2CF4695F1DF08C0161617061806AE
:1053F000991FF1CF86957105610508940895E89489
:10540000BB2766277727CB0197F908950E9491293A
:1054100008F48FEF08950E941B2A29ED3BE54EED1D
:105420005EE30C94632A16F00C94D52A0C94BB29E5
:1054300068940C94B5290E94E529A8F39923C1F337
:10544000AEF3DF93CF931F930F93FF92C92FDD2706
:1054500088232AF02197660F771F881FDAF720E04C
:1054600030E040E85FEB9FE3883920F0803E38F081
:1054700021968F770E943B28E0E9F0E004C00E946B
:105480003B28EDEBF0E00E94E32A8B01BE01EC012A
:10549000FB2E6F5771097595771F880B990B0E942A
:1054A000562928E132E741E35FE30E94762AAF2DD7
:1054B0009801AE01FF900F911F91CF91DF910E9453
:1054C00052280C94CC290E94762A0C94CC290E9454
:1054D000BE2938F00E94C52920F0952311F00C94C4
:1054E000B5290C94BB2911240C94002A0E94DD29B3
:1054F00070F3959FC1F3950F50E0551F629FF00127
:10550000729FBB27F00DB11D639FAA27F00DB11D3F
:10551000AA1F649F6627B00DA11D661F829F2227C8
:10552000B00DA11D621F739FB00DA11D621F839F4F
:10553000A00D611D221F749F3327A00D611D231F25
:10554000849F600D211D822F762F6A2F11249F5773
:1055500050409AF0F1F088234AF0EE0FFF1FBB1F76
:10556000661F771F881F91505040A9F79E3F510535
:1055700080F00C94B5290C94002A5F3FE4F3983E28
:10558000D4F3869577956795B795F795E7959F5FDF
:10559000C1F7FE2B880F911D9695879597F9089571
:1055A0000E949129880B990B08959F3F31F09150EB
:1055B00020F4879577956795B795880F911D9695F7
:1055C000879597F90895DF93CF931F930F93FF92D9
:1055D000EF92DF927B018C01689406C0DA2EEF0116
:1055E0000E94762AFE01E894A59125913591459176
:1055F0005591A6F3EF010E945228FE019701A801E0
:10560000DA9469F7DF90EF90FF900F911F91CF919F
:10561000DF910895DB018F939F930E94812BBF91AF
:10562000AF91A29F800D911DA39F900DB29F900DF1
:1056300011240895991B79E004C0991F961708F06A
:10564000961B881F7A95C9F78095089597FB072EBA
:1056500016F4009407D077FD09D00E94182C07FC9F
:1056600005D03EF4909581959F4F08957095619572
:105670007F4F0895A1E21A2EAA1BBB1BFD010DC08E
:10568000AA1FBB1FEE1FFF1FA217B307E407F507F2
:1056900020F0A21BB30BE40BF50B661F771F881FCE
:1056A000991F1A9469F760957095809590959B0164
:1056B000AC01BD01CF010895052E97FB1EF40094A7
:1056C0000E94732B57FD07D00E943A2B07FC03D092
:1056D0004EF40C94732B50954095309521953F4F87
:1056E0004F4F5F4F089590958095709561957F4FCE
:1056F0008F4F9F4F0895EE0FFF1F0590F491E02DFF
:1057000009940E942C2CA59F900DB49F900DA49FEE
:10571000800D911D11240895B7FF0C94812B0E94D8
:10572000812B821B930B0895689401C0E8948F929B
:105730009F92CF93DF930E94A22BDF91CF919F90F6
:105740008F90089588249924F401E401B0E49F9394
:10575000AA279A158B049C04ED05FE05CF05D007FA
:10576000A10798F4AD2FDC2FCF2FFE2FE92D982C19
:10577000892E982F872F762F652F542F432F322F66
:105780002227B85031F7BF9127C01B2EBF91BB27EE
:10579000220F331F441F551F661F771F881F991F35
:1057A000881C991CEE1FFF1FCC1FDD1FAA1FBB1FEB
:1057B0008A149B04EC05FD05CE05DF05A007B107A3
:1057C00048F08A189B08EC09FD09CE09DF09A00BF7
:1057D000B10B21601A94E1F62EF49401AF01BE01E1
:1057E000CD01000C08950F93083090F0982F872F6B
:1057F000762F652F542F432F322F22270850F4CFB6
:10580000220F331F441F551F661F771F881F991FC4
:105810000A95B2F70F9108950024A7FD00942A0F6E
:10582000301D401D501D601D701D801D901D089570
:10583000AA1BBB1B51E107C0AA1FBB1FA617B707B6
:1058400010F0A61BB70B881F991F5A95A9F78095D2
:105850009095BC01CD010895A29FB001B39FC001F6
:10586000A39F700D811D1124911DB29F700D811D8C
:105870001124911D089581E090E0F8940C942A2F52
:10588000AEE0B0E0E6E4FCE20C94012F0D891E8945
:1058900086E08C831A8309838FEF9FE79E838D8335
:1058A000AE01475E5F4F6F89788DCE0101960E94F1
:1058B000622CEF81F885E00FF11F10822E96E4E054
:1058C0000C941D2FABE0B0E0E8E6FCE20C94F32E64
:1058D0006C017B018A01FC0117821682838181FFA2
:1058E000CCC1CE0101963C01F6019381F70193FDF5
:1058F000859193FF81917F01882309F4BAC1853294
:1059000039F493FD859193FF81917F01853229F4CC
:10591000B60190E00E94592EE7CF912C212C312C1A
:10592000FFE1F315D8F08B3279F038F4803279F05A
:105930008332A1F4232D20611DC08D3261F08033AC
:1059400069F4232D216016C0832D8260382EE32D4B
:10595000E4603E2E2AC0F32DF8601DC037FC2DC038
:1059600020ED280F2A3040F08E32B9F436FC81C188
:10597000232D2064322E19C036FE06C08AE0989E80
:10598000200D1124922E11C0EAE02E9E200D11242C
:10599000222EF32DF0623F2E08C08C3621F4832D89
:1059A0008068382E02C0883641F4F70193FD859156
:1059B00093FF81917F018111B3CF982F9F7D9554E3
:1059C000933028F40C5F1F4F9FE399830DC08336FB
:1059D00031F0833771F0833509F059C021C0F801E7
:1059E000808189830E5F1F4F88248394912C5301FB
:1059F00013C02801F2E04F0E511CF801A080B180C5
:105A000036FE03C0692D70E002C06FEF7FEFC50165
:105A10000E944E2E4C018201F32DFF773F2E16C0BF
:105A2000280122E0420E511CF801A080B18036FE10
:105A300003C0692D70E002C06FEF7FEFC5010E94C7
:105A4000432E4C01F32DF0683F2E820133FC1BC026
:105A5000822D90E088169906B0F4B60180E290E0BD
:105A60000E94592E2A94F4CFF50137FC859137FE18
:105A700081915F01B60190E00E94592E21102A9475
:105A800021E0821A91088114910471F7E8C08436EC
:105A900011F0893641F5F80137FE07C06081718148
:105AA000828193810C5F1F4F08C060817181072E36
:105AB000000C880B990B0E5F1F4FF32DFF763F2EC6
:105AC00097FF09C090958095709561957F4F8F4F96
:105AD0009F4FF0683F2E2AE030E0A3010E94952EF0
